:020000040000FA
:06000000B3EF02F0120054
:06002A0002007507000052
:10003000EF020000AD010000860500000001000095
:04004000EF010000CC
:0C004400BBD8020EE126F40E086E010E7F
:10005000096EFD0EDBCF0DF0FE0EDBCF0EF085EC52
:1000600002F006C0DEFF07C0DDFFD9CFE9FFDACF1F
:10007000EAFF000ED880EE54000EED5405E2DF06D4
:10008000010EF3E2DB06F1D7020EE15C02E2E16A67
:10009000E552E16E98D0836A0F0EABD8300EA4D82B
:1000A0000A0EA7D8300E7ED8300E7CD8200E7AD813
:1000B000280E78D80C0E76D8060E74D8800E72D81A
:1000C00093D8010EFDEF00F079D8FE0EDB5004E06E
:1000D000010EE66E0C0E03D0010EE66E080E84D8FB
:1000E00072D06CD8FD0EDB5002E0839801D083887B
:1000F000FE0EDB50F00BE8380F0B146EFE0EDB50DB
:100100000F0B100DF35014100401BA6F0F0EBA1537
:1001100063D8FE0EDB500F0B5FD855D04FD8FE0EC4
:10012000DBCFEFF2FD0EDBCFF0F2FE0EDBCFE7FF11
:10013000E740E842C00BE76EFE0EE7CFDBFF010EA3
:10014000E66EFD0EDBCFE6FFFE0EDB50E552E72448
:1001500080094AD838D032D829D806E0E66A26D8AD
:1001600036D8FAE3DB2AF8D72ED028D8FC0EDB509D
:100170000201EF5D0EE0FC0EDB5003E0FC0EDB0441
:1001800010E1E66AFC0EDBCFE6FFC8DFE552E55280
:1001900008D00CD806E0E66A09D819D8FAE3DB2AB9
:1001A000F8D711D021D8010EF9EF00F0FD0EDBCF0A
:1001B000E9FFFE0EDBCFEAFFEF501200D9CFE6FFDA
:1001C000E1CFD9FF1200E552E7CFD9FF12000CD8DA
:1001D000FD0EDB2AFE0E1200146EF00E83141410B6
:1001E000836E839C838C1200E66E7BDFE552E552C2
:1001F000120003D8010EE66E1200E66EE66A22DFF8
:06020000E552E552120078
:0A02060056616C75653A00456C65A1
:10021000766174696F6E204D617800456C6576611A
:1002200074696F6E204D696E00417A696D757468EE
:10023000204D617800417A696D757468204D696E52
:100240000044697374616E6365204D617800446990
:100250007374616E6365204D696E0052652D656E25
:1002600074657220496E707574004F7574206F66E6
:100270002052616E676500456E7472792053756314
:100280006365737366756C00416E676C653A200038
:10029000557365204172726F7773004D616E7561A1
:1002A0006C204D6F766500476F746F200053657446
:1002B00020004D616E75616C6C7900456C657661EE
:1002C00074696F6E00417A696D75746800456C657C
:1002D0007600417A696D00446973740054617267F5
:1002E00065742041637175697265640020205365EF
:1002F00061726368696E672E2E2E005461726765A5
:1003000074204E6F7420466F756E640052656D6F79
:100310007465204D6F646500536574204C696D6988
:10032000747300476F746F20506F736974696F6ED8
:100330000054656D70657261747572650054617208
:1003400067657420537461747573004D61696E2024
:100350004D656E75005072657373203C474F3E00CB
:10036000446561746853746172547261636B657241
:01037000008C
:0E0372000401ACC4F6FFADC4F7FFAC2B000EC7
:10038000AD230800F550E66EAEC4E9FFAFC4EAFF46
:10039000AE2B000EAF23E552E750EF6EEAE11200FC
:1003A000D9CFE6FFE1CFD9FF0E0EE126D9CFE9FF85
:1003B000DACFEAFF3D0EEE6EEE6AD950020FE96E1B
:1003C000DACFEAFF620EEE6E650EEE6E680EEE6E2E
:1003D000610EEE6E760EEE6E690EEE6E6E0EEE6EC7
:1003E000670EEE6EEE6A0B0EDB6AD9CF14F0DACF31
:1003F00015F00C0ED9CFDBFF0D0EDACFDBFF0401B9
:100400009C0EAE6F040EAF6F62C4ACF463C4ADF467
:10041000B0DF956A936A4BEC00F09C0EE66E040E1A
:10042000E66EABEC00F018D89D0EE66E030EE66E9D
:10043000ABEC00F011D8010EE66EE66E8EEC00F02B
:100440000BD8D8C1E6FFD9C1E6FFABEC00F0E5520E
:10045000E55281688190FDD7E552E552010EE66EC6
:0C046000E66A22EC00F0E552E5521200C2
:04046C002A0EF66EF0
:10047000000EF76E000EF86E04010900F550B56F1E
:100480000900F550B66F03E1B56701D03DD0090012
:10049000F550B06F0900F550B16F0900F550B26F1B
:1004A00009000900F550E96E0900F550EA6E0900EF
:1004B00009000900F550B36F0900F550B46F090049
:1004C0000900F6CFB7F4F7CFB8F4F8CFB9F4B0C459
:1004D000F6FFB1C4F7FFB2C4F8FF0401B35302E161
:1004E000B45307E00900F550EE6EB307F8E2B40725
:1004F000F9D7B7C4F6FFB8C4F7FFB9C4F8FF0401D1
:0A050000B507000EB65BBFD712006E
:06050A0008C012F00850C9
:100510000D02F4CF07F0F3CF06F009500E02F4CF2E
:1005200009F0F3CF08F00D02F3500726F45008222B
:10053000E86A092212500E02F3500726F4500822EE
:06054000E86A0922000C2C
:0A054600000EF36E00EE00F0060E4A
:1005500001D81200EA6002D0EE6AFCD7F350E960DD
:060560001200EE6AFCD758
:0A05660015EE00F025EE00F0F86A33
:10057000019C36EC02F0C2EC02F0D0EC01F0FBD7AB
:02058000120067
:02058200120065
:02058400120063
:0A058600000000000000000000006B
:100590000000005603006703000000000000000098
:1005A000000000000000000000000000000000004B
:1005B00000000000250300550400000000000000BA
:1005C000000000000001000000000000000000002A
:1005D0000000000000BB0300C70300000000000093
:1005E000000000000000000000000000000000000B
:1005F000000000000000EB0300F803000000000012
:1006000000000000000000000000000000000000EA
:1006100000000000000000DA0300020300000000F8
:100620000000000000000000000000000005630161
:100630008401000000000000B50300D203000000A8
:100640000000000000000000000100000000054262
:1006500001A501000000000000B00301A703310361
:100660000000000000000000000000000000000387
:10067000C601000000000000000031030195039D49
:100680000300000000000000000000000000000067
:100690000000000000000000000000EB0300F80371
:1006A000000000000000000000000000000000004A
:1006B000000000000000000000000000DA0300025B
:1006C0000300000000000000000000000000000027
:1006D00000000508022902000000000000070400D5
:1006E00055040000000000000000000000000100B0
:1006F000000000034A0200000000000000003F0369
:1007000001140407042D04210439044704000000E7
:100710000000000000000000000000000000004A8F
:1007200003000203000000000000000000000000C1
:1007300000000000000B00012101E7016B028C02A8
:100740000D03011703250331033F034A0300000093
:1007500000000000000003AD0200000000000000E7
:1007600000F1020002030000000000000000000091
:05077000000000000084
:0B0775000000446561746853746172F9
:10078000547261636B6572005072657373203C47ED
:100790004F3E004D61696E204D656E75005461726B
:1007A000676574205374617475730054656D70656A
:1007B00072617475726500476F746F20506F736952
:1007C00074696F6E00536574204C696D69747300B1
:1007D00052656D6F7465204D6F646500546172677A
:1007E0006574204E6F7420466F756E640020205330
:1007F0006561726368696E672E2E2E0054617267A0
:10080000657420416371756972656400446973742D
:1008100000417A696D00456C657600417A696D75B5
:10082000746800456C65766174696F6E004D616E29
:1008300075616C6C79005365742000476F746F208C
:10084000004D616E75616C204D6F76650055736566
:10085000204172726F777300416E676C653A2000B9
:10086000456E747279205375636365737366756C36
:10087000004F7574206F662052616E676500526587
:100880002D656E74657220496E70757400446973CD
:1008900074616E6365204D696E0044697374616EA6
:1008A0006365204D617800417A696D757468204DEB
:1008B000696E00417A696D757468204D61780045F4
:1008C0006C65766174696F6E204D696E00456C656C
:1008D000766174696F6E204D61780056616C756544
:1008E0003A00600355034B033D0331032303180310
:1008F0000C03FB02EC02DC02D702D202CD02C502DD
:10090000BB02B202AD02A7029B02900288027702EC
:100910006A025B024E024102350229021B020D02ED
:020920000602CD
:020000040030CA
:0100010022DC
:010002000EEF
:0100030000FC
:010006008178
:010008000FE8
:01000900C036
:01000A000FE6
:01000B00E014
:01000C000FE4
:01000D0040B2
:00000001FF
